{
    "contractName": "ExpenseTracker",
    "abi": [
        {
            "constant": false,
            "inputs": [
                {
                    "internalType": "string",
                    "name": "_description",
                    "type": "string"
                },
                {
                    "internalType": "int64",
                    "name": "_amount",
                    "type": "int64"
                }
            ],
            "name": "addExpense",
            "outputs": [],
            "payable": false,
            "stateMutability": "nonpayable",
            "type": "function"
        },
        {
            "constant": false,
            "inputs": [
                {
                    "internalType": "string",
                    "name": "_description",
                    "type": "string"
                },
                {
                    "internalType": "int64",
                    "name": "_amount",
                    "type": "int64"
                }
            ],
            "name": "addIncome",
            "outputs": [],
            "payable": false,
            "stateMutability": "nonpayable",
            "type": "function"
        },
        {
            "constant": true,
            "inputs": [],
            "name": "balance",
            "outputs": [
                {
                    "internalType": "int256",
                    "name": "",
                    "type": "int256"
                }
            ],
            "payable": false,
            "stateMutability": "view",
            "type": "function"
        },
        {
            "constant": true,
            "inputs": [],
            "name": "expense",
            "outputs": [
                {
                    "internalType": "int64",
                    "name": "",
                    "type": "int64"
                }
            ],
            "payable": false,
            "stateMutability": "view",
            "type": "function"
        },
        {
            "constant": true,
            "inputs": [],
            "name": "getAll",
            "outputs": [
                {
                    "components": [
                        {
                            "internalType": "string",
                            "name": "title",
                            "type": "string"
                        },
                        {
                            "internalType": "int64",
                            "name": "amount",
                            "type": "int64"
                        },
                        {
                            "internalType": "address",
                            "name": "sender",
                            "type": "address"
                        }
                    ],
                    "internalType": "struct ExpenseTracker.Transaction[]",
                    "name": "",
                    "type": "tuple[]"
                }
            ],
            "payable": false,
            "stateMutability": "view",
            "type": "function"
        },
        {
            "constant": true,
            "inputs": [],
            "name": "getLength",
            "outputs": [
                {
                    "internalType": "uint256",
                    "name": "",
                    "type": "uint256"
                }
            ],
            "payable": false,
            "stateMutability": "view",
            "type": "function"
        },
        {
            "constant": true,
            "inputs": [],
            "name": "income",
            "outputs": [
                {
                    "internalType": "int64",
                    "name": "",
                    "type": "int64"
                }
            ],
            "payable": false,
            "stateMutability": "view",
            "type": "function"
        },
        {
            "constant": false,
            "inputs": [],
            "name": "reset",
            "outputs": [],
            "payable": false,
            "stateMutability": "nonpayable",
            "type": "function"
        },
        {
            "constant": true,
            "inputs": [
                {
                    "internalType": "uint256",
                    "name": "",
                    "type": "uint256"
                }
            ],
            "name": "transactions",
            "outputs": [
                {
                    "internalType": "string",
                    "name": "title",
                    "type": "string"
                },
                {
                    "internalType": "int64",
                    "name": "amount",
                    "type": "int64"
                },
                {
                    "internalType": "address",
                    "name": "sender",
                    "type": "address"
                }
            ],
            "payable": false,
            "stateMutability": "view",
            "type": "function"
        }
    ],
    "bytecode": "608060405260008055600180546001600160801b031916905534801561002457600080fd5b506109da806100346000396000f3fe608060405234801561001057600080fd5b50600436106100935760003560e01c806388b450461161006657806388b45046146100f35780639ace38c2146100fb578063b69ef8a81461011d578063be1c766b14610132578063d826f88f1461013a57610093565b806308a869b814610098578063466663cb146100ad57806353ed5143146100cb5780637d4ed543146100e0575b600080fd5b6100ab6100a63660046106bf565b610142565b005b6100b561024f565b6040516100c29190610877565b60405180910390f35b6100d361025f565b6040516100c29190610858565b6100ab6100ee3660046106bf565b61037b565b6100b5610499565b61010e610109366004610710565b6104a2565b6040516100c293929190610885565b61012561056c565b6040516100c29190610869565b610125610572565b6100ab610578565b60018054600781810b8401900b67ffffffffffffffff1667ffffffffffffffff19909116179055610171610597565b5060408051606081018252838152600783900b60208083019190915233928201929092526002805460018101808355600083905283518051949591948694939093027f405787fa12a823e0f2b7631cc41b3ba8828b3321ca811111fa75cd3aa3bb5ace01926101e392849201906105b7565b506020820151600191909101805460409093015167ffffffffffffffff1990931667ffffffffffffffff600793840b1617600160401b600160e01b031916600160401b6001600160a01b039094169390930292909217909155600080549490910b909301909255505050565b600154600160401b900460070b81565b60606002805480602002602001604051908101604052809291908181526020016000905b828210156103715760008481526020908190206040805160028681029093018054600181161561010002600019011693909304601f81018590049094028101608090810190925260608101848152909384928491908401828280156103295780601f106102fe57610100808354040283529160200191610329565b820191906000526020600020905b81548152906001019060200180831161030c57829003601f168201915b5050509183525050600191820154600781810b810b900b602080840191909152600160401b9091046001600160a01b0316604090920191909152918352929092019101610283565b5050505090505b90565b60018054600160401b808204600790810b8501900b67ffffffffffffffff16026fffffffffffffffff0000000000000000199091161790556103bb610597565b5060408051606081018252838152600783900b60208083019190915233928201929092526002805460018101808355600083905283518051949591948694939093027f405787fa12a823e0f2b7631cc41b3ba8828b3321ca811111fa75cd3aa3bb5ace019261042d92849201906105b7565b506020820151600190910180546040909301516001600160a01b0316600160401b02600160401b600160e01b0319600793840b67ffffffffffffffff1667ffffffffffffffff19909516949094179390931692909217909155600080549490910b909303909255505050565b60015460070b81565b600281815481106104af57fe5b60009182526020918290206002918202018054604080516001831615610100026000190190921693909304601f8101859004850282018501909352828152909350918391908301828280156105455780601f1061051a57610100808354040283529160200191610545565b820191906000526020600020905b81548152906001019060200180831161052857829003601f168201915b50505060019093015491925050600781900b906001600160a01b03600160401b9091041683565b60005481565b60025490565b60008055600180546fffffffffffffffffffffffffffffffff19169055565b604080516060808201835281526000602082018190529181019190915290565b828054600181600116156101000203166002900490600052602060002090601f016020900481019282601f106105f857805160ff1916838001178555610625565b82800160010185558215610625579182015b8281111561062557825182559160200191906001019061060a565b50610631929150610635565b5090565b61037891905b80821115610631576000815560010161063b565b803561065a81610977565b92915050565b600082601f83011261067157600080fd5b813561068461067f826108d9565b6108b2565b915080825260208301602083018583830111156106a057600080fd5b6106ab838284610931565b50505092915050565b803561065a8161098e565b600080604083850312156106d257600080fd5b823567ffffffffffffffff8111156106e957600080fd5b6106f585828601610660565b92505060206107068582860161064f565b9150509250929050565b60006020828403121561072257600080fd5b600061072e84846106b4565b949350505050565b60006107428383610810565b9392505050565b61075281610914565b82525050565b600061076382610907565b61076d818561090b565b93508360208202850161077f85610901565b8060005b858110156107b9578484038952815161079c8582610736565b94506107a783610901565b60209a909a0199925050600101610783565b5091979650505050505050565b61075281610378565b6107528161091f565b60006107e382610907565b6107ed818561090b565b93506107fd81856020860161093d565b6108068161096d565b9093019392505050565b805160608084526000919084019061082882826107d8565b915050602083015161083d60208601826107cf565b5060408301516108506040860182610749565b509392505050565b602080825281016107428184610758565b6020810161065a82846107c6565b6020810161065a82846107cf565b6060808252810161089681866107d8565b90506108a560208301856107cf565b61072e6040830184610749565b60405181810167ffffffffffffffff811182821017156108d157600080fd5b604052919050565b600067ffffffffffffffff8211156108f057600080fd5b506020601f91909101601f19160190565b60200190565b5190565b90815260200190565b600061065a82610925565b60070b90565b6001600160a01b031690565b82818337506000910152565b60005b83811015610958578181015183820152602001610940565b83811115610967576000848401525b50505050565b601f01601f191690565b6109808161091f565b811461098b57600080fd5b50565b6109808161037856fea365627a7a72315820cc8b7903a2db87f8e4ef0afedb3d4ff4d53b04a96d9b2e134955359de67cc22e6c6578706572696d656e74616cf564736f6c63430005100040",
    "sourcePath": "/home/zara/Documents/Training Projects/Real Projects/Expense-Tracker-ReactEthereum/contracts/ExpenseTracker.sol",
    "compiler": {
        "name": "solc",
        "version": "0.5.16+commit.9c3226ce"
    },
    "functionHashes": {
        "addExpense(string,int64)": "7d4ed543",
        "addIncome(string,int64)": "08a869b8",
        "balance()": "b69ef8a8",
        "expense()": "466663cb",
        "getAll()": "53ed5143",
        "getLength()": "be1c766b",
        "income()": "88b45046",
        "reset()": "d826f88f",
        "transactions(uint256)": "9ace38c2"
    },
    "gasEstimates": {
        "creation": {
            "codeDepositCost": "504400",
            "executionCost": "26373",
            "totalCost": "530773"
        },
        "external": {
            "addExpense(string,int64)": "infinite",
            "addIncome(string,int64)": "infinite",
            "balance()": "1143",
            "expense()": "1155",
            "getAll()": "infinite",
            "getLength()": "1165",
            "income()": "1115",
            "reset()": "26056",
            "transactions(uint256)": "infinite"
        }
    }
}