{
  "contractName": "ExpenseTracker",
  "abi": [
    {
      "constant": true,
      "inputs": [],
      "name": "balance",
      "outputs": [
        {
          "internalType": "int256",
          "name": "",
          "type": "int256"
        }
      ],
      "payable": false,
      "stateMutability": "view",
      "type": "function"
    },
    {
      "constant": true,
      "inputs": [],
      "name": "expense",
      "outputs": [
        {
          "internalType": "int64",
          "name": "",
          "type": "int64"
        }
      ],
      "payable": false,
      "stateMutability": "view",
      "type": "function"
    },
    {
      "constant": true,
      "inputs": [],
      "name": "income",
      "outputs": [
        {
          "internalType": "int64",
          "name": "",
          "type": "int64"
        }
      ],
      "payable": false,
      "stateMutability": "view",
      "type": "function"
    },
    {
      "constant": true,
      "inputs": [
        {
          "internalType": "uint256",
          "name": "",
          "type": "uint256"
        }
      ],
      "name": "transactions",
      "outputs": [
        {
          "internalType": "string",
          "name": "title",
          "type": "string"
        },
        {
          "internalType": "int64",
          "name": "amount",
          "type": "int64"
        },
        {
          "internalType": "address",
          "name": "sender",
          "type": "address"
        }
      ],
      "payable": false,
      "stateMutability": "view",
      "type": "function"
    },
    {
      "constant": false,
      "inputs": [
        {
          "internalType": "string",
          "name": "_description",
          "type": "string"
        },
        {
          "internalType": "int64",
          "name": "_amount",
          "type": "int64"
        }
      ],
      "name": "addIncome",
      "outputs": [],
      "payable": false,
      "stateMutability": "nonpayable",
      "type": "function"
    },
    {
      "constant": false,
      "inputs": [
        {
          "internalType": "string",
          "name": "_description",
          "type": "string"
        },
        {
          "internalType": "int64",
          "name": "_amount",
          "type": "int64"
        }
      ],
      "name": "addExpense",
      "outputs": [],
      "payable": false,
      "stateMutability": "nonpayable",
      "type": "function"
    },
    {
      "constant": true,
      "inputs": [],
      "name": "getAll",
      "outputs": [
        {
          "components": [
            {
              "internalType": "string",
              "name": "title",
              "type": "string"
            },
            {
              "internalType": "int64",
              "name": "amount",
              "type": "int64"
            },
            {
              "internalType": "address",
              "name": "sender",
              "type": "address"
            }
          ],
          "internalType": "struct ExpenseTracker.Transaction[]",
          "name": "",
          "type": "tuple[]"
        }
      ],
      "payable": false,
      "stateMutability": "view",
      "type": "function"
    },
    {
      "constant": false,
      "inputs": [],
      "name": "reset",
      "outputs": [],
      "payable": false,
      "stateMutability": "nonpayable",
      "type": "function"
    },
    {
      "constant": true,
      "inputs": [],
      "name": "getLength",
      "outputs": [
        {
          "internalType": "uint256",
          "name": "",
          "type": "uint256"
        }
      ],
      "payable": false,
      "stateMutability": "view",
      "type": "function"
    }
  ],
  "bytecode": "0x6080604052600080556000600160006101000a81548167ffffffffffffffff021916908360070b67ffffffffffffffff1602179055506000600160086101000a81548167ffffffffffffffff021916908360070b67ffffffffffffffff16021790555034801561006e57600080fd5b50610d668061007e6000396000f3fe608060405234801561001057600080fd5b50600436106100935760003560e01c806388b450461161006657806388b450461461010c5780639ace38c21461012a578063b69ef8a81461015c578063be1c766b1461017a578063d826f88f1461019857610093565b806308a869b814610098578063466663cb146100b457806353ed5143146100d25780637d4ed543146100f0575b600080fd5b6100b260048036036100ad91908101906108bd565b6101a2565b005b6100bc6102fb565b6040516100c99190610b1c565b60405180910390f35b6100da61030e565b6040516100e79190610adf565b60405180910390f35b61010a600480360361010591908101906108bd565b610482565b005b6101146105db565b6040516101219190610b1c565b60405180910390f35b610144600480360361013f9190810190610911565b6105ee565b60405161015393929190610b37565b60405180910390f35b6101646106ea565b6040516101719190610b01565b60405180910390f35b6101826106f0565b60405161018f9190610b75565b60405180910390f35b6101a06106fd565b005b80600160009054906101000a900460070b01600160006101000a81548167ffffffffffffffff021916908360070b67ffffffffffffffff1602179055506101e7610760565b60405180606001604052808481526020018360070b81526020013373ffffffffffffffffffffffffffffffffffffffff16815250905060028190806001815401808255809150509060018203906000526020600020906002020160009091929091909150600082015181600001908051906020019061026792919061079a565b5060208201518160010160006101000a81548167ffffffffffffffff021916908360070b67ffffffffffffffff16021790555060408201518160010160086101000a81548173ffffffffffffffffffffffffffffffffffffffff021916908373ffffffffffffffffffffffffffffffffffffffff1602179055505050508160070b6000808282540192505081905550505050565b600160089054906101000a900460070b81565b60606002805480602002602001604051908101604052809291908181526020016000905b828210156104795783829060005260206000209060020201604051806060016040529081600082018054600181600116156101000203166002900480601f0160208091040260200160405190810160405280929190818152602001828054600181600116156101000203166002900480156103ee5780601f106103c3576101008083540402835291602001916103ee565b820191906000526020600020905b8154815290600101906020018083116103d157829003601f168201915b505050505081526020016001820160009054906101000a900460070b60070b60070b81526020016001820160089054906101000a900473ffffffffffffffffffffffffffffffffffffffff1673ffffffffffffffffffffffffffffffffffffffff1673ffffffffffffffffffffffffffffffffffffffff168152505081526020019060010190610332565b50505050905090565b80600160089054906101000a900460070b01600160086101000a81548167ffffffffffffffff021916908360070b67ffffffffffffffff1602179055506104c7610760565b60405180606001604052808481526020018360070b81526020013373ffffffffffffffffffffffffffffffffffffffff16815250905060028190806001815401808255809150509060018203906000526020600020906002020160009091929091909150600082015181600001908051906020019061054792919061079a565b5060208201518160010160006101000a81548167ffffffffffffffff021916908360070b67ffffffffffffffff16021790555060408201518160010160086101000a81548173ffffffffffffffffffffffffffffffffffffffff021916908373ffffffffffffffffffffffffffffffffffffffff1602179055505050508160070b6000808282540392505081905550505050565b600160009054906101000a900460070b81565b600281815481106105fb57fe5b9060005260206000209060020201600091509050806000018054600181600116156101000203166002900480601f0160208091040260200160405190810160405280929190818152602001828054600181600116156101000203166002900480156106a75780601f1061067c576101008083540402835291602001916106a7565b820191906000526020600020905b81548152906001019060200180831161068a57829003601f168201915b5050505050908060010160009054906101000a900460070b908060010160089054906101000a900473ffffffffffffffffffffffffffffffffffffffff16905083565b60005481565b6000600280549050905090565b600080819055506000600160006101000a81548167ffffffffffffffff021916908360070b67ffffffffffffffff1602179055506000600160086101000a81548167ffffffffffffffff021916908360070b67ffffffffffffffff160217905550565b604051806060016040528060608152602001600060070b8152602001600073ffffffffffffffffffffffffffffffffffffffff1681525090565b828054600181600116156101000203166002900490600052602060002090601f016020900481019282601f106107db57805160ff1916838001178555610809565b82800160010185558215610809579182015b828111156108085782518255916020019190600101906107ed565b5b509050610816919061081a565b5090565b61083c91905b80821115610838576000816000905550600101610820565b5090565b90565b60008135905061084e81610cf5565b92915050565b600082601f83011261086557600080fd5b813561087861087382610bbd565b610b90565b9150808252602083016020830185838301111561089457600080fd5b61089f838284610ca2565b50505092915050565b6000813590506108b781610d0c565b92915050565b600080604083850312156108d057600080fd5b600083013567ffffffffffffffff8111156108ea57600080fd5b6108f685828601610854565b92505060206109078582860161083f565b9150509250929050565b60006020828403121561092357600080fd5b6000610931848285016108a8565b91505092915050565b60006109468383610a80565b905092915050565b61095781610c4f565b82525050565b61096681610c4f565b82525050565b600061097782610bf9565b6109818185610c1c565b93508360208202850161099385610be9565b8060005b858110156109cf57848403895281516109b0858261093a565b94506109bb83610c0f565b925060208a01995050600181019050610997565b50829750879550505050505092915050565b6109ea81610c61565b82525050565b6109f981610c6b565b82525050565b610a0881610c6b565b82525050565b6000610a1982610c04565b610a238185610c2d565b9350610a33818560208601610cb1565b610a3c81610ce4565b840191505092915050565b6000610a5282610c04565b610a5c8185610c3e565b9350610a6c818560208601610cb1565b610a7581610ce4565b840191505092915050565b60006060830160008301518482036000860152610a9d8282610a0e565b9150506020830151610ab260208601826109f0565b506040830151610ac5604086018261094e565b508091505092915050565b610ad981610c98565b82525050565b60006020820190508181036000830152610af9818461096c565b905092915050565b6000602082019050610b1660008301846109e1565b92915050565b6000602082019050610b3160008301846109ff565b92915050565b60006060820190508181036000830152610b518186610a47565b9050610b6060208301856109ff565b610b6d604083018461095d565b949350505050565b6000602082019050610b8a6000830184610ad0565b92915050565b6000604051905081810181811067ffffffffffffffff82111715610bb357600080fd5b8060405250919050565b600067ffffffffffffffff821115610bd457600080fd5b601f19601f8301169050602081019050919050565b6000819050602082019050919050565b600081519050919050565b600081519050919050565b6000602082019050919050565b600082825260208201905092915050565b600082825260208201905092915050565b600082825260208201905092915050565b6000610c5a82610c78565b9050919050565b6000819050919050565b60008160070b9050919050565b600073ffffffffffffffffffffffffffffffffffffffff82169050919050565b6000819050919050565b82818337600083830152505050565b60005b83811015610ccf578082015181840152602081019050610cb4565b83811115610cde576000848401525b50505050565b6000601f19601f8301169050919050565b610cfe81610c6b565b8114610d0957600080fd5b50565b610d1581610c98565b8114610d2057600080fd5b5056fea365627a7a723158209e73f9577e18b9f07b8a0e446b56bb92899de8410410d55d6a916e7661e3d92d6c6578706572696d656e74616cf564736f6c63430005100040",
  "source": "pragma solidity ^0.5.16;\npragma experimental ABIEncoderV2;\n\n\ncontract ExpenseTracker {\n    \n    \n\n    struct Transaction {\n       \n        string title;\n        int64 amount;\n        address sender;\n    }\n    \n    int public balance = 0;\n    int64 public income=0;\n    int64 public expense=0;\n    Transaction[] public transactions;\n\n    \n    function addIncome(string memory _description , int64 _amount) public {\n  \n        income= income+_amount;\n        Transaction memory transaction = Transaction(_description,_amount, msg.sender);\n        transactions.push(transaction);\n        balance += _amount;\n        \n    }\n    \n     function addExpense(string memory _description , int64 _amount) public {\n        expense= expense+_amount;\n        Transaction memory transaction = Transaction(_description,_amount, msg.sender);\n        transactions.push(transaction);\n        balance -= _amount;\n    \n    }\n    \n   \n    function getAll() public view returns (Transaction[] memory) {\n        return transactions;\n    }\n    \n\n    function reset() public{ \n       balance=0;\n       income=0;\n       expense=0;\n    }\n    \n\n     function getLength() public view returns (uint256) {\n        return transactions.length;\n    }\n    \n    \n   \n}",
  "sourcePath": "/home/zara/Documents/Training Projects/Real Projects/Expense-Tracker-ReactEthereum/contracts/ExpenseTracker.sol",
  "compiler": {
    "name": "solc",
    "version": "0.5.16+commit.9c3226ce.Emscripten.clang"
  },
  "schemaVersion": "3.4.0",
  "updatedAt": "2021-06-05T15:28:20.734Z",
  "networkType": "ethereum",
  "devdoc": {
    "methods": {}
  },
  "userdoc": {
    "methods": {}
  }
}